{
  "contracts/Raffle.sol": {
    "Raffle": {
      "abi": [
        {
          "inputs": [
            {
              "internalType": "uint256",
              "name": "entranceFee",
              "type": "uint256"
            }
          ],
          "stateMutability": "nonpayable",
          "type": "constructor"
        },
        {
          "inputs": [],
          "name": "Raffle__NotEnoughETHEntered",
          "type": "error"
        },
        {
          "anonymous": false,
          "inputs": [
            {
              "indexed": true,
              "internalType": "address",
              "name": "player",
              "type": "address"
            }
          ],
          "name": "RaffleEnter",
          "type": "event"
        },
        {
          "inputs": [],
          "name": "enterRaffle",
          "outputs": [],
          "stateMutability": "payable",
          "type": "function"
        },
        {
          "inputs": [],
          "name": "fulfillRandomWords",
          "outputs": [],
          "stateMutability": "nonpayable",
          "type": "function"
        },
        {
          "inputs": [],
          "name": "getEntranceFee",
          "outputs": [
            {
              "internalType": "uint256",
              "name": "",
              "type": "uint256"
            }
          ],
          "stateMutability": "view",
          "type": "function"
        },
        {
          "inputs": [
            {
              "internalType": "uint256",
              "name": "index",
              "type": "uint256"
            }
          ],
          "name": "getPlayer",
          "outputs": [
            {
              "internalType": "address",
              "name": "",
              "type": "address"
            }
          ],
          "stateMutability": "view",
          "type": "function"
        },
        {
          "inputs": [],
          "name": "requestRandomWinner",
          "outputs": [],
          "stateMutability": "nonpayable",
          "type": "function"
        }
      ],
      "devdoc": {
        "kind": "dev",
        "methods": {},
        "version": 1
      },
      "evm": {
        "bytecode": {
          "linkReferences": {},
          "object": "60a060405234801561001057600080fd5b506040516104803803806104808339818101604052810190610032919061007b565b8060808181525050506100a8565b600080fd5b6000819050919050565b61005881610045565b811461006357600080fd5b50565b6000815190506100758161004f565b92915050565b60006020828403121561009157610090610040565b5b600061009f84828501610066565b91505092915050565b6080516103b76100c96000396000818160f3015261011901526103b76000f3fe60806040526004361061004a5760003560e01c806309bc33a71461004f5780632cfcc5391461007a578063522a1f0b14610084578063e55ae4e81461009b578063e76ca33d146100d8575b600080fd5b34801561005b57600080fd5b506100646100ef565b604051610071919061027d565b60405180910390f35b610082610117565b005b34801561009057600080fd5b50610099610219565b005b3480156100a757600080fd5b506100c260048036038101906100bd91906102c9565b61021b565b6040516100cf9190610337565b60405180910390f35b3480156100e457600080fd5b506100ed610262565b005b60007f0000000000000000000000000000000000000000000000000000000000000000905090565b7f0000000000000000000000000000000000000000000000000000000000000000341015610171576040517fbd4e069500000000000000000000000000000000000000000000000000000000815260040160405180910390fd5b6000339080600181540180825580915050600190039060005260206000200160009091909190916101000a81548173ffffffffffffffffffffffffffffffffffffffff021916908373ffffffffffffffffffffffffffffffffffffffff1602179055503373ffffffffffffffffffffffffffffffffffffffff167f0805e1d667bddb8a95f0f09880cf94f403fb596ce79928d9f29b74203ba284d460405160405180910390a2565b565b60008082815481106102305761022f610352565b5b9060005260206000200160009054906101000a900473ffffffffffffffffffffffffffffffffffffffff169050919050565b565b6000819050919050565b61027781610264565b82525050565b6000602082019050610292600083018461026e565b92915050565b600080fd5b6102a681610264565b81146102b157600080fd5b50565b6000813590506102c38161029d565b92915050565b6000602082840312156102df576102de610298565b5b60006102ed848285016102b4565b91505092915050565b600073ffffffffffffffffffffffffffffffffffffffff82169050919050565b6000610321826102f6565b9050919050565b61033181610316565b82525050565b600060208201905061034c6000830184610328565b92915050565b7f4e487b7100000000000000000000000000000000000000000000000000000000600052603260045260246000fdfea264697066735822122043d856404dabd615eadf9841fe387b4b6c2df16294fd136a8561ac6001e9754364736f6c63430008090033",
          "opcodes": "PUSH1 0xA0 PUSH1 0x40 MSTORE CALLVALUE DUP1 ISZERO PUSH2 0x10 JUMPI PUSH1 0x0 DUP1 REVERT JUMPDEST POP PUSH1 0x40 MLOAD PUSH2 0x480 CODESIZE SUB DUP1 PUSH2 0x480 DUP4 CODECOPY DUP2 DUP2 ADD PUSH1 0x40 MSTORE DUP2 ADD SWAP1 PUSH2 0x32 SWAP2 SWAP1 PUSH2 0x7B JUMP JUMPDEST DUP1 PUSH1 0x80 DUP2 DUP2 MSTORE POP POP POP PUSH2 0xA8 JUMP JUMPDEST PUSH1 0x0 DUP1 REVERT JUMPDEST PUSH1 0x0 DUP2 SWAP1 POP SWAP2 SWAP1 POP JUMP JUMPDEST PUSH2 0x58 DUP2 PUSH2 0x45 JUMP JUMPDEST DUP2 EQ PUSH2 0x63 JUMPI PUSH1 0x0 DUP1 REVERT JUMPDEST POP JUMP JUMPDEST PUSH1 0x0 DUP2 MLOAD SWAP1 POP PUSH2 0x75 DUP2 PUSH2 0x4F JUMP JUMPDEST SWAP3 SWAP2 POP POP JUMP JUMPDEST PUSH1 0x0 PUSH1 0x20 DUP3 DUP5 SUB SLT ISZERO PUSH2 0x91 JUMPI PUSH2 0x90 PUSH2 0x40 JUMP JUMPDEST JUMPDEST PUSH1 0x0 PUSH2 0x9F DUP5 DUP3 DUP6 ADD PUSH2 0x66 JUMP JUMPDEST SWAP2 POP POP SWAP3 SWAP2 POP POP JUMP JUMPDEST PUSH1 0x80 MLOAD PUSH2 0x3B7 PUSH2 0xC9 PUSH1 0x0 CODECOPY PUSH1 0x0 DUP2 DUP2 PUSH1 0xF3 ADD MSTORE PUSH2 0x119 ADD MSTORE PUSH2 0x3B7 PUSH1 0x0 RETURN INVALID PUSH1 0x80 PUSH1 0x40 MSTORE PUSH1 0x4 CALLDATASIZE LT PUSH2 0x4A JUMPI PUSH1 0x0 CALLDATALOAD PUSH1 0xE0 SHR DUP1 PUSH4 0x9BC33A7 EQ PUSH2 0x4F JUMPI DUP1 PUSH4 0x2CFCC539 EQ PUSH2 0x7A JUMPI DUP1 PUSH4 0x522A1F0B EQ PUSH2 0x84 JUMPI DUP1 PUSH4 0xE55AE4E8 EQ PUSH2 0x9B JUMPI DUP1 PUSH4 0xE76CA33D EQ PUSH2 0xD8 JUMPI JUMPDEST PUSH1 0x0 DUP1 REVERT JUMPDEST CALLVALUE DUP1 ISZERO PUSH2 0x5B JUMPI PUSH1 0x0 DUP1 REVERT JUMPDEST POP PUSH2 0x64 PUSH2 0xEF JUMP JUMPDEST PUSH1 0x40 MLOAD PUSH2 0x71 SWAP2 SWAP1 PUSH2 0x27D JUMP JUMPDEST PUSH1 0x40 MLOAD DUP1 SWAP2 SUB SWAP1 RETURN JUMPDEST PUSH2 0x82 PUSH2 0x117 JUMP JUMPDEST STOP JUMPDEST CALLVALUE DUP1 ISZERO PUSH2 0x90 JUMPI PUSH1 0x0 DUP1 REVERT JUMPDEST POP PUSH2 0x99 PUSH2 0x219 JUMP JUMPDEST STOP JUMPDEST CALLVALUE DUP1 ISZERO PUSH2 0xA7 JUMPI PUSH1 0x0 DUP1 REVERT JUMPDEST POP PUSH2 0xC2 PUSH1 0x4 DUP1 CALLDATASIZE SUB DUP2 ADD SWAP1 PUSH2 0xBD SWAP2 SWAP1 PUSH2 0x2C9 JUMP JUMPDEST PUSH2 0x21B JUMP JUMPDEST PUSH1 0x40 MLOAD PUSH2 0xCF SWAP2 SWAP1 PUSH2 0x337 JUMP JUMPDEST PUSH1 0x40 MLOAD DUP1 SWAP2 SUB SWAP1 RETURN JUMPDEST CALLVALUE DUP1 ISZERO PUSH2 0xE4 JUMPI PUSH1 0x0 DUP1 REVERT JUMPDEST POP PUSH2 0xED PUSH2 0x262 JUMP JUMPDEST STOP JUMPDEST PUSH1 0x0 PUSH32 0x0 SWAP1 POP SWAP1 JUMP JUMPDEST PUSH32 0x0 CALLVALUE LT ISZERO PUSH2 0x171 JUMPI PUSH1 0x40 MLOAD PUSH32 0xBD4E069500000000000000000000000000000000000000000000000000000000 DUP2 MSTORE PUSH1 0x4 ADD PUSH1 0x40 MLOAD DUP1 SWAP2 SUB SWAP1 REVERT JUMPDEST PUSH1 0x0 CALLER SWAP1 DUP1 PUSH1 0x1 DUP2 SLOAD ADD DUP1 DUP3 SSTORE DUP1 SWAP2 POP POP PUSH1 0x1 SWAP1 SUB SWAP1 PUSH1 0x0 MSTORE PUSH1 0x20 PUSH1 0x0 KECCAK256 ADD PUSH1 0x0 SWAP1 SWAP2 SWAP1 SWAP2 SWAP1 SWAP2 PUSH2 0x100 EXP DUP2 SLOAD DUP2 PUSH20 0xFFFFFFFFFFFFFFFFFFFFFFFFFFFFFFFFFFFFFFFF MUL NOT AND SWAP1 DUP4 PUSH20 0xFFFFFFFFFFFFFFFFFFFFFFFFFFFFFFFFFFFFFFFF AND MUL OR SWAP1 SSTORE POP CALLER PUSH20 0xFFFFFFFFFFFFFFFFFFFFFFFFFFFFFFFFFFFFFFFF AND PUSH32 0x805E1D667BDDB8A95F0F09880CF94F403FB596CE79928D9F29B74203BA284D4 PUSH1 0x40 MLOAD PUSH1 0x40 MLOAD DUP1 SWAP2 SUB SWAP1 LOG2 JUMP JUMPDEST JUMP JUMPDEST PUSH1 0x0 DUP1 DUP3 DUP2 SLOAD DUP2 LT PUSH2 0x230 JUMPI PUSH2 0x22F PUSH2 0x352 JUMP JUMPDEST JUMPDEST SWAP1 PUSH1 0x0 MSTORE PUSH1 0x20 PUSH1 0x0 KECCAK256 ADD PUSH1 0x0 SWAP1 SLOAD SWAP1 PUSH2 0x100 EXP SWAP1 DIV PUSH20 0xFFFFFFFFFFFFFFFFFFFFFFFFFFFFFFFFFFFFFFFF AND SWAP1 POP SWAP2 SWAP1 POP JUMP JUMPDEST JUMP JUMPDEST PUSH1 0x0 DUP2 SWAP1 POP SWAP2 SWAP1 POP JUMP JUMPDEST PUSH2 0x277 DUP2 PUSH2 0x264 JUMP JUMPDEST DUP3 MSTORE POP POP JUMP JUMPDEST PUSH1 0x0 PUSH1 0x20 DUP3 ADD SWAP1 POP PUSH2 0x292 PUSH1 0x0 DUP4 ADD DUP5 PUSH2 0x26E JUMP JUMPDEST SWAP3 SWAP2 POP POP JUMP JUMPDEST PUSH1 0x0 DUP1 REVERT JUMPDEST PUSH2 0x2A6 DUP2 PUSH2 0x264 JUMP JUMPDEST DUP2 EQ PUSH2 0x2B1 JUMPI PUSH1 0x0 DUP1 REVERT JUMPDEST POP JUMP JUMPDEST PUSH1 0x0 DUP2 CALLDATALOAD SWAP1 POP PUSH2 0x2C3 DUP2 PUSH2 0x29D JUMP JUMPDEST SWAP3 SWAP2 POP POP JUMP JUMPDEST PUSH1 0x0 PUSH1 0x20 DUP3 DUP5 SUB SLT ISZERO PUSH2 0x2DF JUMPI PUSH2 0x2DE PUSH2 0x298 JUMP JUMPDEST JUMPDEST PUSH1 0x0 PUSH2 0x2ED DUP5 DUP3 DUP6 ADD PUSH2 0x2B4 JUMP JUMPDEST SWAP2 POP POP SWAP3 SWAP2 POP POP JUMP JUMPDEST PUSH1 0x0 PUSH20 0xFFFFFFFFFFFFFFFFFFFFFFFFFFFFFFFFFFFFFFFF DUP3 AND SWAP1 POP SWAP2 SWAP1 POP JUMP JUMPDEST PUSH1 0x0 PUSH2 0x321 DUP3 PUSH2 0x2F6 JUMP JUMPDEST SWAP1 POP SWAP2 SWAP1 POP JUMP JUMPDEST PUSH2 0x331 DUP2 PUSH2 0x316 JUMP JUMPDEST DUP3 MSTORE POP POP JUMP JUMPDEST PUSH1 0x0 PUSH1 0x20 DUP3 ADD SWAP1 POP PUSH2 0x34C PUSH1 0x0 DUP4 ADD DUP5 PUSH2 0x328 JUMP JUMPDEST SWAP3 SWAP2 POP POP JUMP JUMPDEST PUSH32 0x4E487B7100000000000000000000000000000000000000000000000000000000 PUSH1 0x0 MSTORE PUSH1 0x32 PUSH1 0x4 MSTORE PUSH1 0x24 PUSH1 0x0 REVERT INVALID LOG2 PUSH5 0x6970667358 0x22 SLT KECCAK256 NUMBER 0xD8 JUMP BLOCKHASH 0x4D 0xAB 0xD6 ISZERO 0xEA 0xDF SWAP9 COINBASE INVALID CODESIZE PUSH28 0x4B6C2DF16294FD136A8561AC6001E9754364736F6C63430008090033 "
        },
        "gasEstimates": {
          "creation": {
            "codeDepositCost": "190200",
            "executionCost": "infinite",
            "totalCost": "infinite"
          },
          "external": {
            "enterRaffle()": "infinite",
            "fulfillRandomWords()": "210",
            "getEntranceFee()": "infinite",
            "getPlayer(uint256)": "5011",
            "requestRandomWinner()": "166"
          }
        },
        "methodIdentifiers": {
          "enterRaffle()": "2cfcc539",
          "fulfillRandomWords()": "e76ca33d",
          "getEntranceFee()": "09bc33a7",
          "getPlayer(uint256)": "e55ae4e8",
          "requestRandomWinner()": "522a1f0b"
        }
      },
      "storageLayout": {
        "storage": [
          {
            "astId": 67,
            "contract": "contracts/Raffle.sol:Raffle",
            "label": "s_players",
            "offset": 0,
            "slot": "0",
            "type": "t_array(t_address_payable)dyn_storage"
          }
        ],
        "types": {
          "t_address_payable": {
            "encoding": "inplace",
            "label": "address payable",
            "numberOfBytes": "20"
          },
          "t_array(t_address_payable)dyn_storage": {
            "base": "t_address_payable",
            "encoding": "dynamic_array",
            "label": "address payable[]",
            "numberOfBytes": "32"
          }
        }
      },
      "userdoc": {
        "kind": "user",
        "methods": {},
        "version": 1
      }
    }
  }
}