{
  "_format": "hh-sol-artifact-1",
  "contractName": "Raffle",
  "sourceName": "contracts/Raffle.sol",
  "abi": [
    {
      "inputs": [
        {
          "internalType": "address",
          "name": "vrfCoordinatorV2",
          "type": "address"
        },
        {
          "internalType": "uint256",
          "name": "entranceFee",
          "type": "uint256"
        },
        {
          "internalType": "bytes32",
          "name": "gasLane",
          "type": "bytes32"
        },
        {
          "internalType": "uint64",
          "name": "subscriptionId",
          "type": "uint64"
        },
        {
          "internalType": "uint32",
          "name": "callBackGasLimit",
          "type": "uint32"
        },
        {
          "internalType": "uint256",
          "name": "interval",
          "type": "uint256"
        }
      ],
      "stateMutability": "nonpayable",
      "type": "constructor"
    },
    {
      "inputs": [
        {
          "internalType": "address",
          "name": "have",
          "type": "address"
        },
        {
          "internalType": "address",
          "name": "want",
          "type": "address"
        }
      ],
      "name": "OnlyCoordinatorCanFulfill",
      "type": "error"
    },
    {
      "inputs": [],
      "name": "Raffle__NOTOPEN",
      "type": "error"
    },
    {
      "inputs": [],
      "name": "Raffle__NotEnoughETHEntered",
      "type": "error"
    },
    {
      "inputs": [],
      "name": "Raffle__TransferFailed",
      "type": "error"
    },
    {
      "inputs": [
        {
          "internalType": "uint256",
          "name": "currentBalance",
          "type": "uint256"
        },
        {
          "internalType": "uint256",
          "name": "numPlayers",
          "type": "uint256"
        },
        {
          "internalType": "uint256",
          "name": "raffleState",
          "type": "uint256"
        }
      ],
      "name": "Raffle__UpKeepNotNeeded",
      "type": "error"
    },
    {
      "anonymous": false,
      "inputs": [
        {
          "indexed": true,
          "internalType": "address",
          "name": "player",
          "type": "address"
        }
      ],
      "name": "RaffleEnter",
      "type": "event"
    },
    {
      "anonymous": false,
      "inputs": [
        {
          "indexed": true,
          "internalType": "uint256",
          "name": "requestId",
          "type": "uint256"
        }
      ],
      "name": "RequestedRaffleWinner",
      "type": "event"
    },
    {
      "anonymous": false,
      "inputs": [
        {
          "indexed": true,
          "internalType": "address",
          "name": "winner",
          "type": "address"
        }
      ],
      "name": "WinnerPicked",
      "type": "event"
    },
    {
      "inputs": [
        {
          "internalType": "bytes",
          "name": "",
          "type": "bytes"
        }
      ],
      "name": "checkUpkeep",
      "outputs": [
        {
          "internalType": "bool",
          "name": "upkeepNeeded",
          "type": "bool"
        },
        {
          "internalType": "bytes",
          "name": "",
          "type": "bytes"
        }
      ],
      "stateMutability": "view",
      "type": "function"
    },
    {
      "inputs": [],
      "name": "enterRaffle",
      "outputs": [],
      "stateMutability": "payable",
      "type": "function"
    },
    {
      "inputs": [],
      "name": "getEntranceFee",
      "outputs": [
        {
          "internalType": "uint256",
          "name": "",
          "type": "uint256"
        }
      ],
      "stateMutability": "view",
      "type": "function"
    },
    {
      "inputs": [],
      "name": "getInterval",
      "outputs": [
        {
          "internalType": "uint256",
          "name": "",
          "type": "uint256"
        }
      ],
      "stateMutability": "view",
      "type": "function"
    },
    {
      "inputs": [],
      "name": "getNumWords",
      "outputs": [
        {
          "internalType": "uint32",
          "name": "",
          "type": "uint32"
        }
      ],
      "stateMutability": "view",
      "type": "function"
    },
    {
      "inputs": [],
      "name": "getNumberOfPlayers",
      "outputs": [
        {
          "internalType": "uint256",
          "name": "",
          "type": "uint256"
        }
      ],
      "stateMutability": "view",
      "type": "function"
    },
    {
      "inputs": [
        {
          "internalType": "uint256",
          "name": "index",
          "type": "uint256"
        }
      ],
      "name": "getPlayer",
      "outputs": [
        {
          "internalType": "address",
          "name": "",
          "type": "address"
        }
      ],
      "stateMutability": "view",
      "type": "function"
    },
    {
      "inputs": [],
      "name": "getRaffleState",
      "outputs": [
        {
          "internalType": "enum Raffle.RaffleState",
          "name": "",
          "type": "uint8"
        }
      ],
      "stateMutability": "view",
      "type": "function"
    },
    {
      "inputs": [],
      "name": "getRecentWinner",
      "outputs": [
        {
          "internalType": "address",
          "name": "",
          "type": "address"
        }
      ],
      "stateMutability": "view",
      "type": "function"
    },
    {
      "inputs": [],
      "name": "getRequestConfirmations",
      "outputs": [
        {
          "internalType": "uint256",
          "name": "",
          "type": "uint256"
        }
      ],
      "stateMutability": "pure",
      "type": "function"
    },
    {
      "inputs": [
        {
          "internalType": "bytes",
          "name": "",
          "type": "bytes"
        }
      ],
      "name": "performUpkeep",
      "outputs": [],
      "stateMutability": "nonpayable",
      "type": "function"
    },
    {
      "inputs": [
        {
          "internalType": "uint256",
          "name": "requestId",
          "type": "uint256"
        },
        {
          "internalType": "uint256[]",
          "name": "randomWords",
          "type": "uint256[]"
        }
      ],
      "name": "rawFulfillRandomWords",
      "outputs": [],
      "stateMutability": "nonpayable",
      "type": "function"
    }
  ],
  "bytecode": "0x6101606040523480156200001257600080fd5b5060405162001836380380620018368339818101604052810190620000389190620001ad565b858073ffffffffffffffffffffffffffffffffffffffff1660808173ffffffffffffffffffffffffffffffffffffffff1660601b81525050508460c081815250508573ffffffffffffffffffffffffffffffffffffffff1660a08173ffffffffffffffffffffffffffffffffffffffff1660601b815250508360e081815250508267ffffffffffffffff166101008167ffffffffffffffff1660c01b815250508163ffffffff166101208163ffffffff1660e01b815250506000600260146101000a81548160ff02191690836001811115620001195762000118620002b5565b5b0217905550426001819055508061014081815250505050505050506200036b565b6000815190506200014b81620002e9565b92915050565b600081519050620001628162000303565b92915050565b60008151905062000179816200031d565b92915050565b600081519050620001908162000337565b92915050565b600081519050620001a78162000351565b92915050565b60008060008060008060c08789031215620001cd57620001cc620002e4565b5b6000620001dd89828a016200013a565b9650506020620001f089828a0162000168565b95505060406200020389828a0162000151565b94505060606200021689828a0162000196565b93505060806200022989828a016200017f565b92505060a06200023c89828a0162000168565b9150509295509295509295565b6000620002568262000267565b9050919050565b6000819050919050565b600073ffffffffffffffffffffffffffffffffffffffff82169050919050565b6000819050919050565b600063ffffffff82169050919050565b600067ffffffffffffffff82169050919050565b7f4e487b7100000000000000000000000000000000000000000000000000000000600052602160045260246000fd5b600080fd5b620002f48162000249565b81146200030057600080fd5b50565b6200030e816200025d565b81146200031a57600080fd5b50565b620003288162000287565b81146200033457600080fd5b50565b620003428162000291565b81146200034e57600080fd5b50565b6200035c81620002a1565b81146200036857600080fd5b50565b60805160601c60a05160601c60c05160e0516101005160c01c6101205160e01c6101405161144f620003e7600039600081816107a1015261084d0152600061065601526000610633015260006106120152600081816102b401526103b1015260006105d60152600081816102f10152610345015261144f6000f3fe6080604052600436106100a75760003560e01c806353a2c19a1161006457806353a2c19a146101895780635f1b0fd8146101b45780636e04ff0d146101df57806391ad27b41461021d578063e55ae4e814610248578063fd6673f514610285576100a7565b806309bc33a7146100ac578063115cbaf5146100d75780631fe543e3146101025780632cfcc5391461012b5780634585e33b14610135578063473f1ddc1461015e575b600080fd5b3480156100b857600080fd5b506100c16102b0565b6040516100ce919061103a565b60405180910390f35b3480156100e357600080fd5b506100ec6102d8565b6040516100f9919061101f565b60405180910390f35b34801561010e57600080fd5b5061012960048036038101906101249190610e13565b6102ef565b005b6101336103af565b005b34801561014157600080fd5b5061015c60048036038101906101579190610d23565b61051e565b005b34801561016a57600080fd5b5061017361071e565b6040516101809190610f58565b60405180910390f35b34801561019557600080fd5b5061019e610748565b6040516101ab919061108c565b60405180910390f35b3480156101c057600080fd5b506101c9610751565b6040516101d6919061103a565b60405180910390f35b3480156101eb57600080fd5b5061020660048036038101906102019190610d70565b61075e565b604051610214929190610f9c565b60405180910390f35b34801561022957600080fd5b50610232610849565b60405161023f919061103a565b60405180910390f35b34801561025457600080fd5b5061026f600480360381019061026a9190610db9565b610871565b60405161027c9190610f58565b60405180910390f35b34801561029157600080fd5b5061029a6108b8565b6040516102a7919061103a565b60405180910390f35b60007f0000000000000000000000000000000000000000000000000000000000000000905090565b6000600260149054906101000a900460ff16905090565b7f000000000000000000000000000000000000000000000000000000000000000073ffffffffffffffffffffffffffffffffffffffff163373ffffffffffffffffffffffffffffffffffffffff16146103a157337f00000000000000000000000000000000000000000000000000000000000000006040517f1cf993f4000000000000000000000000000000000000000000000000000000008152600401610398929190610f73565b60405180910390fd5b6103ab82826108c4565b5050565b7f0000000000000000000000000000000000000000000000000000000000000000341015610409576040517fbd4e069500000000000000000000000000000000000000000000000000000000815260040160405180910390fd5b6000600181111561041d5761041c61132f565b5b600260149054906101000a900460ff16600181111561043f5761043e61132f565b5b14610476576040517f5731c74000000000000000000000000000000000000000000000000000000000815260040160405180910390fd5b6000339080600181540180825580915050600190039060005260206000200160009091909190916101000a81548173ffffffffffffffffffffffffffffffffffffffff021916908373ffffffffffffffffffffffffffffffffffffffff1602179055503373ffffffffffffffffffffffffffffffffffffffff167f0805e1d667bddb8a95f0f09880cf94f403fb596ce79928d9f29b74203ba284d460405160405180910390a2565b60006105386040518060200160405280600081525061075e565b509050806105a75747600080549050600260149054906101000a900460ff1660018111156105695761056861132f565b5b6040517f3a8d608600000000000000000000000000000000000000000000000000000000815260040161059e93929190611055565b60405180910390fd5b6001600260146101000a81548160ff021916908360018111156105cd576105cc61132f565b5b021790555060007f000000000000000000000000000000000000000000000000000000000000000073ffffffffffffffffffffffffffffffffffffffff16635d3b1d307f00000000000000000000000000000000000000000000000000000000000000007f000000000000000000000000000000000000000000000000000000000000000060037f000000000000000000000000000000000000000000000000000000000000000060016040518663ffffffff1660e01b8152600401610697959493929190610fcc565b602060405180830381600087803b1580156106b157600080fd5b505af11580156106c5573d6000803e3d6000fd5b505050506040513d601f19601f820116820180604052508101906106e99190610de6565b9050807fcd6e45c8998311cab7e9d4385596cac867e20a0587194b954fa3a731c93ce78b60405160405180910390a250505050565b6000600260009054906101000a900473ffffffffffffffffffffffffffffffffffffffff16905090565b60006001905090565b6000600361ffff16905090565b600060606000600260149054906101000a900460ff1660018111156107865761078561132f565b5b6000600181111561079a5761079961132f565b5b14905060007f0000000000000000000000000000000000000000000000000000000000000000600154426107ce9190611150565b1190506000806000805490501190506000804711905060008480156107f05750835b80156107f95750825b80156108025750815b9050866040518060400160405280600381526020017f3078300000000000000000000000000000000000000000000000000000000000815250965096505050505050915091565b60007f0000000000000000000000000000000000000000000000000000000000000000905090565b60008082815481106108865761088561135e565b5b9060005260206000200160009054906101000a900473ffffffffffffffffffffffffffffffffffffffff169050919050565b60008080549050905090565b60008080549050826000815181106108df576108de61135e565b5b60200260200101516108f191906112a0565b905060008082815481106109085761090761135e565b5b9060005260206000200160009054906101000a900473ffffffffffffffffffffffffffffffffffffffff16905080600260006101000a81548173ffffffffffffffffffffffffffffffffffffffff021916908373ffffffffffffffffffffffffffffffffffffffff1602179055506000600260146101000a81548160ff0219169083600181111561099c5761099b61132f565b5b0217905550600067ffffffffffffffff8111156109bc576109bb61138d565b5b6040519080825280602002602001820160405280156109ea5781602001602082028036833780820191505090505b5060009080519060200190610a00929190610aee565b5060008173ffffffffffffffffffffffffffffffffffffffff1647604051610a2790610f43565b60006040518083038185875af1925050503d8060008114610a64576040519150601f19603f3d011682016040523d82523d6000602084013e610a69565b606091505b5050905080610aa4576040517fa1d04b3900000000000000000000000000000000000000000000000000000000815260040160405180910390fd5b8173ffffffffffffffffffffffffffffffffffffffff167f5b690ec4a06fe979403046eaeea5b3ce38524683c3001f662c8b5a829632f7df60405160405180910390a25050505050565b828054828255906000526020600020908101928215610b67579160200282015b82811115610b665782518260006101000a81548173ffffffffffffffffffffffffffffffffffffffff021916908373ffffffffffffffffffffffffffffffffffffffff16021790555091602001919060010190610b0e565b5b509050610b749190610b78565b5090565b5b80821115610b91576000816000905550600101610b79565b5090565b6000610ba8610ba3846110cc565b6110a7565b90508083825260208201905082856020860282011115610bcb57610bca6113c6565b5b60005b85811015610bfb5781610be18882610cf9565b845260208401935060208301925050600181019050610bce565b5050509392505050565b6000610c18610c13846110f8565b6110a7565b905082815260208101848484011115610c3457610c336113cb565b5b610c3f84828561122d565b509392505050565b600082601f830112610c5c57610c5b6113c1565b5b8135610c6c848260208601610b95565b91505092915050565b60008083601f840112610c8b57610c8a6113c1565b5b8235905067ffffffffffffffff811115610ca857610ca76113bc565b5b602083019150836001820283011115610cc457610cc36113c6565b5b9250929050565b600082601f830112610ce057610cdf6113c1565b5b8135610cf0848260208601610c05565b91505092915050565b600081359050610d0881611402565b92915050565b600081519050610d1d81611402565b92915050565b60008060208385031215610d3a57610d396113d5565b5b600083013567ffffffffffffffff811115610d5857610d576113d0565b5b610d6485828601610c75565b92509250509250929050565b600060208284031215610d8657610d856113d5565b5b600082013567ffffffffffffffff811115610da457610da36113d0565b5b610db084828501610ccb565b91505092915050565b600060208284031215610dcf57610dce6113d5565b5b6000610ddd84828501610cf9565b91505092915050565b600060208284031215610dfc57610dfb6113d5565b5b6000610e0a84828501610d0e565b91505092915050565b60008060408385031215610e2a57610e296113d5565b5b6000610e3885828601610cf9565b925050602083013567ffffffffffffffff811115610e5957610e586113d0565b5b610e6585828601610c47565b9150509250929050565b610e7881611184565b82525050565b610e8781611196565b82525050565b610e96816111a2565b82525050565b6000610ea782611129565b610eb18185611134565b9350610ec181856020860161123c565b610eca816113da565b840191505092915050565b610ede8161121b565b82525050565b6000610ef1600083611145565b9150610efc826113eb565b600082019050919050565b610f10816111bf565b82525050565b610f1f816111ed565b82525050565b610f2e816111f7565b82525050565b610f3d81611207565b82525050565b6000610f4e82610ee4565b9150819050919050565b6000602082019050610f6d6000830184610e6f565b92915050565b6000604082019050610f886000830185610e6f565b610f956020830184610e6f565b9392505050565b6000604082019050610fb16000830185610e7e565b8181036020830152610fc38184610e9c565b90509392505050565b600060a082019050610fe16000830188610e8d565b610fee6020830187610f34565b610ffb6040830186610f07565b6110086060830185610f25565b6110156080830184610f25565b9695505050505050565b60006020820190506110346000830184610ed5565b92915050565b600060208201905061104f6000830184610f16565b92915050565b600060608201905061106a6000830186610f16565b6110776020830185610f16565b6110846040830184610f16565b949350505050565b60006020820190506110a16000830184610f25565b92915050565b60006110b16110c2565b90506110bd828261126f565b919050565b6000604051905090565b600067ffffffffffffffff8211156110e7576110e661138d565b5b602082029050602081019050919050565b600067ffffffffffffffff8211156111135761111261138d565b5b61111c826113da565b9050602081019050919050565b600081519050919050565b600082825260208201905092915050565b600081905092915050565b600061115b826111ed565b9150611166836111ed565b925082821015611179576111786112d1565b5b828203905092915050565b600061118f826111cd565b9050919050565b60008115159050919050565b6000819050919050565b60008190506111ba826113ee565b919050565b600061ffff82169050919050565b600073ffffffffffffffffffffffffffffffffffffffff82169050919050565b6000819050919050565b600063ffffffff82169050919050565b600067ffffffffffffffff82169050919050565b6000611226826111ac565b9050919050565b82818337600083830152505050565b60005b8381101561125a57808201518184015260208101905061123f565b83811115611269576000848401525b50505050565b611278826113da565b810181811067ffffffffffffffff821117156112975761129661138d565b5b80604052505050565b60006112ab826111ed565b91506112b6836111ed565b9250826112c6576112c5611300565b5b828206905092915050565b7f4e487b7100000000000000000000000000000000000000000000000000000000600052601160045260246000fd5b7f4e487b7100000000000000000000000000000000000000000000000000000000600052601260045260246000fd5b7f4e487b7100000000000000000000000000000000000000000000000000000000600052602160045260246000fd5b7f4e487b7100000000000000000000000000000000000000000000000000000000600052603260045260246000fd5b7f4e487b7100000000000000000000000000000000000000000000000000000000600052604160045260246000fd5b600080fd5b600080fd5b600080fd5b600080fd5b600080fd5b600080fd5b6000601f19601f8301169050919050565b50565b600281106113ff576113fe61132f565b5b50565b61140b816111ed565b811461141657600080fd5b5056fea2646970667358221220a64e5ceb6ea2c39a64d267fd61dd7e9ca825261cbd39782282f24c61bf41004264736f6c63430008070033",
  "linkReferences": {},
  "deployedLinkReferences": {}
}